{
  "_format": "hh-sol-artifact-1",
  "contractName": "Oneos",
  "sourceName": "contracts/Oneos.sol",
  "abi": [
    {
      "inputs": [],
      "stateMutability": "nonpayable",
      "type": "constructor"
    },
    {
      "anonymous": false,
      "inputs": [
        {
          "indexed": true,
          "internalType": "address",
          "name": "owner",
          "type": "address"
        },
        {
          "indexed": true,
          "internalType": "address",
          "name": "spender",
          "type": "address"
        },
        {
          "indexed": false,
          "internalType": "uint256",
          "name": "value",
          "type": "uint256"
        }
      ],
      "name": "Approval",
      "type": "event"
    },
    {
      "anonymous": false,
      "inputs": [
        {
          "indexed": true,
          "internalType": "address",
          "name": "owner",
          "type": "address"
        },
        {
          "indexed": true,
          "internalType": "address",
          "name": "spender",
          "type": "address"
        },
        {
          "indexed": false,
          "internalType": "uint256",
          "name": "oldValue",
          "type": "uint256"
        },
        {
          "indexed": false,
          "internalType": "uint256",
          "name": "newValue",
          "type": "uint256"
        }
      ],
      "name": "ApprovalIncreased",
      "type": "event"
    },
    {
      "anonymous": false,
      "inputs": [
        {
          "indexed": true,
          "internalType": "address",
          "name": "oldOwner",
          "type": "address"
        },
        {
          "indexed": true,
          "internalType": "address",
          "name": "newOwner",
          "type": "address"
        }
      ],
      "name": "OwnershipTransfer",
      "type": "event"
    },
    {
      "anonymous": false,
      "inputs": [
        {
          "indexed": true,
          "internalType": "address",
          "name": "previousOwner",
          "type": "address"
        },
        {
          "indexed": true,
          "internalType": "address",
          "name": "newOwner",
          "type": "address"
        }
      ],
      "name": "OwnershipTransferred",
      "type": "event"
    },
    {
      "anonymous": false,
      "inputs": [
        {
          "indexed": true,
          "internalType": "address",
          "name": "from",
          "type": "address"
        },
        {
          "indexed": true,
          "internalType": "address",
          "name": "to",
          "type": "address"
        },
        {
          "indexed": false,
          "internalType": "uint256",
          "name": "value",
          "type": "uint256"
        }
      ],
      "name": "Transfer",
      "type": "event"
    },
    {
      "inputs": [
        {
          "internalType": "address",
          "name": "owner",
          "type": "address"
        },
        {
          "internalType": "address",
          "name": "spender",
          "type": "address"
        }
      ],
      "name": "allowance",
      "outputs": [
        {
          "internalType": "uint256",
          "name": "",
          "type": "uint256"
        }
      ],
      "stateMutability": "view",
      "type": "function"
    },
    {
      "inputs": [
        {
          "internalType": "address",
          "name": "",
          "type": "address"
        }
      ],
      "name": "allowanceIncreases",
      "outputs": [
        {
          "internalType": "uint256",
          "name": "",
          "type": "uint256"
        }
      ],
      "stateMutability": "view",
      "type": "function"
    },
    {
      "inputs": [
        {
          "internalType": "address",
          "name": "spender",
          "type": "address"
        },
        {
          "internalType": "uint256",
          "name": "amount",
          "type": "uint256"
        }
      ],
      "name": "approve",
      "outputs": [
        {
          "internalType": "bool",
          "name": "",
          "type": "bool"
        }
      ],
      "stateMutability": "nonpayable",
      "type": "function"
    },
    {
      "inputs": [
        {
          "internalType": "address",
          "name": "account",
          "type": "address"
        }
      ],
      "name": "balanceOf",
      "outputs": [
        {
          "internalType": "uint256",
          "name": "",
          "type": "uint256"
        }
      ],
      "stateMutability": "view",
      "type": "function"
    },
    {
      "inputs": [],
      "name": "decimals",
      "outputs": [
        {
          "internalType": "uint8",
          "name": "",
          "type": "uint8"
        }
      ],
      "stateMutability": "view",
      "type": "function"
    },
    {
      "inputs": [
        {
          "internalType": "address",
          "name": "spender",
          "type": "address"
        },
        {
          "internalType": "uint256",
          "name": "subtractedValue",
          "type": "uint256"
        }
      ],
      "name": "decreaseAllowance",
      "outputs": [
        {
          "internalType": "bool",
          "name": "",
          "type": "bool"
        }
      ],
      "stateMutability": "nonpayable",
      "type": "function"
    },
    {
      "inputs": [],
      "name": "getAllowanceIncreases",
      "outputs": [
        {
          "internalType": "address[]",
          "name": "",
          "type": "address[]"
        },
        {
          "internalType": "uint256[]",
          "name": "",
          "type": "uint256[]"
        }
      ],
      "stateMutability": "view",
      "type": "function"
    },
    {
      "inputs": [
        {
          "internalType": "address",
          "name": "spender",
          "type": "address"
        },
        {
          "internalType": "uint256",
          "name": "addedValue",
          "type": "uint256"
        }
      ],
      "name": "increaseAllowance",
      "outputs": [
        {
          "internalType": "bool",
          "name": "",
          "type": "bool"
        }
      ],
      "stateMutability": "nonpayable",
      "type": "function"
    },
    {
      "inputs": [
        {
          "internalType": "uint256",
          "name": "",
          "type": "uint256"
        }
      ],
      "name": "increasedAllowanceAddresses",
      "outputs": [
        {
          "internalType": "address",
          "name": "",
          "type": "address"
        }
      ],
      "stateMutability": "view",
      "type": "function"
    },
    {
      "inputs": [],
      "name": "name",
      "outputs": [
        {
          "internalType": "string",
          "name": "",
          "type": "string"
        }
      ],
      "stateMutability": "view",
      "type": "function"
    },
    {
      "inputs": [],
      "name": "owner",
      "outputs": [
        {
          "internalType": "address",
          "name": "",
          "type": "address"
        }
      ],
      "stateMutability": "view",
      "type": "function"
    },
    {
      "inputs": [],
      "name": "renounceOwnership",
      "outputs": [],
      "stateMutability": "nonpayable",
      "type": "function"
    },
    {
      "inputs": [],
      "name": "symbol",
      "outputs": [
        {
          "internalType": "string",
          "name": "",
          "type": "string"
        }
      ],
      "stateMutability": "view",
      "type": "function"
    },
    {
      "inputs": [],
      "name": "totalSupply",
      "outputs": [
        {
          "internalType": "uint256",
          "name": "",
          "type": "uint256"
        }
      ],
      "stateMutability": "view",
      "type": "function"
    },
    {
      "inputs": [
        {
          "internalType": "address",
          "name": "to",
          "type": "address"
        },
        {
          "internalType": "uint256",
          "name": "amount",
          "type": "uint256"
        }
      ],
      "name": "transfer",
      "outputs": [
        {
          "internalType": "bool",
          "name": "",
          "type": "bool"
        }
      ],
      "stateMutability": "nonpayable",
      "type": "function"
    },
    {
      "inputs": [
        {
          "internalType": "address",
          "name": "from",
          "type": "address"
        },
        {
          "internalType": "address",
          "name": "to",
          "type": "address"
        },
        {
          "internalType": "uint256",
          "name": "amount",
          "type": "uint256"
        }
      ],
      "name": "transferFrom",
      "outputs": [
        {
          "internalType": "bool",
          "name": "",
          "type": "bool"
        }
      ],
      "stateMutability": "nonpayable",
      "type": "function"
    },
    {
      "inputs": [
        {
          "internalType": "address",
          "name": "newOwner",
          "type": "address"
        }
      ],
      "name": "transferOwnership",
      "outputs": [],
      "stateMutability": "nonpayable",
      "type": "function"
    }
  ],
  "bytecode": "0x60806040523480156200001157600080fd5b506040518060400160405280600581526020017f4f6e656f730000000000000000000000000000000000000000000000000000008152506040518060400160405280600381526020017f4f4e53000000000000000000000000000000000000000000000000000000000081525081600390816200008f9190620005d4565b508060049081620000a19190620005d4565b505050620000c4620000b86200010c60201b60201c565b6200011460201b60201c565b6200010633620000d9620001da60201b60201c565b60ff16600a620000ea91906200083e565b620f4240620000fa91906200088f565b620001e360201b60201c565b620009c6565b600033905090565b6000600560009054906101000a900473ffffffffffffffffffffffffffffffffffffffff16905081600560006101000a81548173ffffffffffffffffffffffffffffffffffffffff021916908373ffffffffffffffffffffffffffffffffffffffff1602179055508173ffffffffffffffffffffffffffffffffffffffff168173ffffffffffffffffffffffffffffffffffffffff167f8be0079c531659141344cd1fd0a4f28419497f9722a3daafe3b4186f6b6457e060405160405180910390a35050565b60006012905090565b600073ffffffffffffffffffffffffffffffffffffffff168273ffffffffffffffffffffffffffffffffffffffff160362000255576040517f08c379a00000000000000000000000000000000000000000000000000000000081526004016200024c906200093b565b60405180910390fd5b62000269600083836200035060201b60201c565b80600260008282546200027d91906200095d565b92505081905550806000808473ffffffffffffffffffffffffffffffffffffffff1673ffffffffffffffffffffffffffffffffffffffff168152602001908152602001600020600082825401925050819055508173ffffffffffffffffffffffffffffffffffffffff16600073ffffffffffffffffffffffffffffffffffffffff167fddf252ad1be2c89b69c2b068fc378daa952ba7f163c4a11628f55a4df523b3ef83604051620003309190620009a9565b60405180910390a36200034c600083836200035560201b60201c565b5050565b505050565b505050565b600081519050919050565b7f4e487b7100000000000000000000000000000000000000000000000000000000600052604160045260246000fd5b7f4e487b7100000000000000000000000000000000000000000000000000000000600052602260045260246000fd5b60006002820490506001821680620003dc57607f821691505b602082108103620003f257620003f162000394565b5b50919050565b60008190508160005260206000209050919050565b60006020601f8301049050919050565b600082821b905092915050565b6000600883026200045c7fffffffffffffffffffffffffffffffffffffffffffffffffffffffffffffffff826200041d565b6200046886836200041d565b95508019841693508086168417925050509392505050565b6000819050919050565b6000819050919050565b6000620004b5620004af620004a98462000480565b6200048a565b62000480565b9050919050565b6000819050919050565b620004d18362000494565b620004e9620004e082620004bc565b8484546200042a565b825550505050565b600090565b62000500620004f1565b6200050d818484620004c6565b505050565b5b81811015620005355762000529600082620004f6565b60018101905062000513565b5050565b601f82111562000584576200054e81620003f8565b62000559846200040d565b8101602085101562000569578190505b6200058162000578856200040d565b83018262000512565b50505b505050565b600082821c905092915050565b6000620005a96000198460080262000589565b1980831691505092915050565b6000620005c4838362000596565b9150826002028217905092915050565b620005df826200035a565b67ffffffffffffffff811115620005fb57620005fa62000365565b5b620006078254620003c3565b6200061482828562000539565b600060209050601f8311600181146200064c576000841562000637578287015190505b620006438582620005b6565b865550620006b3565b601f1984166200065c86620003f8565b60005b8281101562000686578489015182556001820191506020850194506020810190506200065f565b86831015620006a65784890151620006a2601f89168262000596565b8355505b6001600288020188555050505b505050505050565b7f4e487b7100000000000000000000000000000000000000000000000000000000600052601160045260246000fd5b60008160011c9050919050565b6000808291508390505b60018511156200074957808604811115620007215762000720620006bb565b5b6001851615620007315780820291505b80810290506200074185620006ea565b945062000701565b94509492505050565b60008262000764576001905062000837565b8162000774576000905062000837565b81600181146200078d57600281146200079857620007ce565b600191505062000837565b60ff841115620007ad57620007ac620006bb565b5b8360020a915084821115620007c757620007c6620006bb565b5b5062000837565b5060208310610133831016604e8410600b8410161715620008085782820a905083811115620008025762000801620006bb565b5b62000837565b620008178484846001620006f7565b92509050818404811115620008315762000830620006bb565b5b81810290505b9392505050565b60006200084b8262000480565b9150620008588362000480565b9250620008877fffffffffffffffffffffffffffffffffffffffffffffffffffffffffffffffff848462000752565b905092915050565b60006200089c8262000480565b9150620008a98362000480565b9250828202620008b98162000480565b91508282048414831517620008d357620008d2620006bb565b5b5092915050565b600082825260208201905092915050565b7f45524332303a206d696e7420746f20746865207a65726f206164647265737300600082015250565b600062000923601f83620008da565b91506200093082620008eb565b602082019050919050565b60006020820190508181036000830152620009568162000914565b9050919050565b60006200096a8262000480565b9150620009778362000480565b9250828201905080821115620009925762000991620006bb565b5b92915050565b620009a38162000480565b82525050565b6000602082019050620009c0600083018462000998565b92915050565b611ddc80620009d66000396000f3fe608060405234801561001057600080fd5b506004361061010b5760003560e01c806370a08231116100a257806395d89b411161007157806395d89b41146102d1578063a457c2d7146102ef578063a9059cbb1461031f578063dd62ed3e1461034f578063f2fde38b1461037f5761010b565b806370a0823114610249578063715018a6146102795780637a6dadf0146102835780638da5cb5b146102b35761010b565b806323b872dd116100de57806323b872dd1461019b578063313ce567146101cb5780633179cb9e146101e957806339509351146102195761010b565b806306fdde0314610110578063095ea7b31461012e578063159f3b6b1461015e57806318160ddd1461017d575b600080fd5b61011861039b565b60405161012591906112be565b60405180910390f35b61014860048036038101906101439190611379565b61042d565b60405161015591906113d4565b60405180910390f35b610166610450565b60405161017492919061156b565b60405180910390f35b61018561060e565b60405161019291906115b1565b60405180910390f35b6101b560048036038101906101b091906115cc565b610618565b6040516101c291906113d4565b60405180910390f35b6101d3610647565b6040516101e0919061163b565b60405180910390f35b61020360048036038101906101fe9190611656565b610650565b6040516102109190611692565b60405180910390f35b610233600480360381019061022e9190611379565b61068f565b60405161024091906113d4565b60405180910390f35b610263600480360381019061025e91906116ad565b610855565b60405161027091906115b1565b60405180910390f35b61028161089d565b005b61029d600480360381019061029891906116ad565b6108b1565b6040516102aa91906115b1565b60405180910390f35b6102bb6108c9565b6040516102c89190611692565b60405180910390f35b6102d96108f3565b6040516102e691906112be565b60405180910390f35b61030960048036038101906103049190611379565b610985565b60405161031691906113d4565b60405180910390f35b61033960048036038101906103349190611379565b6109fc565b60405161034691906113d4565b60405180910390f35b610369600480360381019061036491906116da565b610a1f565b60405161037691906115b1565b60405180910390f35b610399600480360381019061039491906116ad565b610aa6565b005b6060600380546103aa90611749565b80601f01602080910402602001604051908101604052809291908181526020018280546103d690611749565b80156104235780601f106103f857610100808354040283529160200191610423565b820191906000526020600020905b81548152906001019060200180831161040657829003601f168201915b5050505050905090565b600080610438610b8a565b9050610445818585610b92565b600191505092915050565b6060806000600780549050905060008167ffffffffffffffff8111156104795761047861177a565b5b6040519080825280602002602001820160405280156104a75781602001602082028036833780820191505090505b50905060008267ffffffffffffffff8111156104c6576104c561177a565b5b6040519080825280602002602001820160405280156104f45781602001602082028036833780820191505090505b50905060005b8381101561060057600060078281548110610518576105176117a9565b5b9060005260206000200160009054906101000a900473ffffffffffffffffffffffffffffffffffffffff16905080848381518110610559576105586117a9565b5b602002602001019073ffffffffffffffffffffffffffffffffffffffff16908173ffffffffffffffffffffffffffffffffffffffff1681525050600660008273ffffffffffffffffffffffffffffffffffffffff1673ffffffffffffffffffffffffffffffffffffffff168152602001908152602001600020548383815181106105e6576105e56117a9565b5b6020026020010181815250505080806001019150506104fa565b508181945094505050509091565b6000600254905090565b600080610623610b8a565b9050610630858285610d5b565b61063b858585610de7565b60019150509392505050565b60006012905090565b6007818154811061066057600080fd5b906000526020600020016000915054906101000a900473ffffffffffffffffffffffffffffffffffffffff1681565b60008061069c3385610a1f565b90506106bb6106a9610b8a565b8585846106b69190611807565b610b92565b8373ffffffffffffffffffffffffffffffffffffffff166106da610b8a565b73ffffffffffffffffffffffffffffffffffffffff167ff36933e973b655759f83f80961c923bb480cc146678f18d9145c48296d6505c883868561071e9190611807565b60405161072c92919061183b565b60405180910390a3600060066000610742610b8a565b73ffffffffffffffffffffffffffffffffffffffff1673ffffffffffffffffffffffffffffffffffffffff16815260200190815260200160002054036107ed57600761078c610b8a565b9080600181540180825580915050600190039060005260206000200160009091909190916101000a81548173ffffffffffffffffffffffffffffffffffffffff021916908373ffffffffffffffffffffffffffffffffffffffff1602179055505b82600660006107fa610b8a565b73ffffffffffffffffffffffffffffffffffffffff1673ffffffffffffffffffffffffffffffffffffffff16815260200190815260200160002060008282546108439190611807565b92505081905550600191505092915050565b60008060008373ffffffffffffffffffffffffffffffffffffffff1673ffffffffffffffffffffffffffffffffffffffff168152602001908152602001600020549050919050565b6108a561105d565b6108af60006110db565b565b60066020528060005260406000206000915090505481565b6000600560009054906101000a900473ffffffffffffffffffffffffffffffffffffffff16905090565b60606004805461090290611749565b80601f016020809104026020016040519081016040528092919081815260200182805461092e90611749565b801561097b5780601f106109505761010080835404028352916020019161097b565b820191906000526020600020905b81548152906001019060200180831161095e57829003601f168201915b5050505050905090565b600080610990610b8a565b9050600061099e8286610a1f565b9050838110156109e3576040517f08c379a00000000000000000000000000000000000000000000000000000000081526004016109da906118d6565b60405180910390fd5b6109f08286868403610b92565b60019250505092915050565b600080610a07610b8a565b9050610a14818585610de7565b600191505092915050565b6000600160008473ffffffffffffffffffffffffffffffffffffffff1673ffffffffffffffffffffffffffffffffffffffff16815260200190815260200160002060008373ffffffffffffffffffffffffffffffffffffffff1673ffffffffffffffffffffffffffffffffffffffff16815260200190815260200160002054905092915050565b610aae61105d565b600073ffffffffffffffffffffffffffffffffffffffff168173ffffffffffffffffffffffffffffffffffffffff1603610b1d576040517f08c379a0000000000000000000000000000000000000000000000000000000008152600401610b1490611942565b60405180910390fd5b8073ffffffffffffffffffffffffffffffffffffffff16610b3c6108c9565b73ffffffffffffffffffffffffffffffffffffffff167f22500af037c600dd7b720644ab6e358635085601d9ac508ad83eb2d6b2d729ca60405160405180910390a3610b87816111a1565b50565b600033905090565b600073ffffffffffffffffffffffffffffffffffffffff168373ffffffffffffffffffffffffffffffffffffffff1603610c01576040517f08c379a0000000000000000000000000000000000000000000000000000000008152600401610bf8906119d4565b60405180910390fd5b600073ffffffffffffffffffffffffffffffffffffffff168273ffffffffffffffffffffffffffffffffffffffff1603610c70576040517f08c379a0000000000000000000000000000000000000000000000000000000008152600401610c6790611a66565b60405180910390fd5b80600160008573ffffffffffffffffffffffffffffffffffffffff1673ffffffffffffffffffffffffffffffffffffffff16815260200190815260200160002060008473ffffffffffffffffffffffffffffffffffffffff1673ffffffffffffffffffffffffffffffffffffffff168152602001908152602001600020819055508173ffffffffffffffffffffffffffffffffffffffff168373ffffffffffffffffffffffffffffffffffffffff167f8c5be1e5ebec7d5bd14f71427d1e84f3dd0314c0f7b2291e5b200ac8c7c3b92583604051610d4e91906115b1565b60405180910390a3505050565b6000610d678484610a1f565b90507fffffffffffffffffffffffffffffffffffffffffffffffffffffffffffffffff8114610de15781811015610dd3576040517f08c379a0000000000000000000000000000000000000000000000000000000008152600401610dca90611ad2565b60405180910390fd5b610de08484848403610b92565b5b50505050565b600073ffffffffffffffffffffffffffffffffffffffff168373ffffffffffffffffffffffffffffffffffffffff1603610e56576040517f08c379a0000000000000000000000000000000000000000000000000000000008152600401610e4d90611b64565b60405180910390fd5b600073ffffffffffffffffffffffffffffffffffffffff168273ffffffffffffffffffffffffffffffffffffffff1603610ec5576040517f08c379a0000000000000000000000000000000000000000000000000000000008152600401610ebc90611bf6565b60405180910390fd5b610ed0838383611224565b60008060008573ffffffffffffffffffffffffffffffffffffffff1673ffffffffffffffffffffffffffffffffffffffff16815260200190815260200160002054905081811015610f56576040517f08c379a0000000000000000000000000000000000000000000000000000000008152600401610f4d90611c88565b60405180910390fd5b8181036000808673ffffffffffffffffffffffffffffffffffffffff1673ffffffffffffffffffffffffffffffffffffffff16815260200190815260200160002081905550816000808573ffffffffffffffffffffffffffffffffffffffff1673ffffffffffffffffffffffffffffffffffffffff168152602001908152602001600020600082825401925050819055508273ffffffffffffffffffffffffffffffffffffffff168473ffffffffffffffffffffffffffffffffffffffff167fddf252ad1be2c89b69c2b068fc378daa952ba7f163c4a11628f55a4df523b3ef8460405161104491906115b1565b60405180910390a3611057848484611229565b50505050565b611065610b8a565b73ffffffffffffffffffffffffffffffffffffffff166110836108c9565b73ffffffffffffffffffffffffffffffffffffffff16146110d9576040517f08c379a00000000000000000000000000000000000000000000000000000000081526004016110d090611cf4565b60405180910390fd5b565b6000600560009054906101000a900473ffffffffffffffffffffffffffffffffffffffff16905081600560006101000a81548173ffffffffffffffffffffffffffffffffffffffff021916908373ffffffffffffffffffffffffffffffffffffffff1602179055508173ffffffffffffffffffffffffffffffffffffffff168173ffffffffffffffffffffffffffffffffffffffff167f8be0079c531659141344cd1fd0a4f28419497f9722a3daafe3b4186f6b6457e060405160405180910390a35050565b6111a961105d565b600073ffffffffffffffffffffffffffffffffffffffff168173ffffffffffffffffffffffffffffffffffffffff1603611218576040517f08c379a000000000000000000000000000000000000000000000000000000000815260040161120f90611d86565b60405180910390fd5b611221816110db565b50565b505050565b505050565b600081519050919050565b600082825260208201905092915050565b60005b8381101561126857808201518184015260208101905061124d565b60008484015250505050565b6000601f19601f8301169050919050565b60006112908261122e565b61129a8185611239565b93506112aa81856020860161124a565b6112b381611274565b840191505092915050565b600060208201905081810360008301526112d88184611285565b905092915050565b600080fd5b600073ffffffffffffffffffffffffffffffffffffffff82169050919050565b6000611310826112e5565b9050919050565b61132081611305565b811461132b57600080fd5b50565b60008135905061133d81611317565b92915050565b6000819050919050565b61135681611343565b811461136157600080fd5b50565b6000813590506113738161134d565b92915050565b600080604083850312156113905761138f6112e0565b5b600061139e8582860161132e565b92505060206113af85828601611364565b9150509250929050565b60008115159050919050565b6113ce816113b9565b82525050565b60006020820190506113e960008301846113c5565b92915050565b600081519050919050565b600082825260208201905092915050565b6000819050602082019050919050565b61142481611305565b82525050565b6000611436838361141b565b60208301905092915050565b6000602082019050919050565b600061145a826113ef565b61146481856113fa565b935061146f8361140b565b8060005b838110156114a0578151611487888261142a565b975061149283611442565b925050600181019050611473565b5085935050505092915050565b600081519050919050565b600082825260208201905092915050565b6000819050602082019050919050565b6114e281611343565b82525050565b60006114f483836114d9565b60208301905092915050565b6000602082019050919050565b6000611518826114ad565b61152281856114b8565b935061152d836114c9565b8060005b8381101561155e57815161154588826114e8565b975061155083611500565b925050600181019050611531565b5085935050505092915050565b60006040820190508181036000830152611585818561144f565b90508181036020830152611599818461150d565b90509392505050565b6115ab81611343565b82525050565b60006020820190506115c660008301846115a2565b92915050565b6000806000606084860312156115e5576115e46112e0565b5b60006115f38682870161132e565b93505060206116048682870161132e565b925050604061161586828701611364565b9150509250925092565b600060ff82169050919050565b6116358161161f565b82525050565b6000602082019050611650600083018461162c565b92915050565b60006020828403121561166c5761166b6112e0565b5b600061167a84828501611364565b91505092915050565b61168c81611305565b82525050565b60006020820190506116a76000830184611683565b92915050565b6000602082840312156116c3576116c26112e0565b5b60006116d18482850161132e565b91505092915050565b600080604083850312156116f1576116f06112e0565b5b60006116ff8582860161132e565b92505060206117108582860161132e565b9150509250929050565b7f4e487b7100000000000000000000000000000000000000000000000000000000600052602260045260246000fd5b6000600282049050600182168061176157607f821691505b6020821081036117745761177361171a565b5b50919050565b7f4e487b7100000000000000000000000000000000000000000000000000000000600052604160045260246000fd5b7f4e487b7100000000000000000000000000000000000000000000000000000000600052603260045260246000fd5b7f4e487b7100000000000000000000000000000000000000000000000000000000600052601160045260246000fd5b600061181282611343565b915061181d83611343565b9250828201905080821115611835576118346117d8565b5b92915050565b600060408201905061185060008301856115a2565b61185d60208301846115a2565b9392505050565b7f45524332303a2064656372656173656420616c6c6f77616e63652062656c6f7760008201527f207a65726f000000000000000000000000000000000000000000000000000000602082015250565b60006118c0602583611239565b91506118cb82611864565b604082019050919050565b600060208201905081810360008301526118ef816118b3565b9050919050565b7f4e6577206f776e657220697320746865207a65726f2061646472657373000000600082015250565b600061192c601d83611239565b9150611937826118f6565b602082019050919050565b6000602082019050818103600083015261195b8161191f565b9050919050565b7f45524332303a20617070726f76652066726f6d20746865207a65726f2061646460008201527f7265737300000000000000000000000000000000000000000000000000000000602082015250565b60006119be602483611239565b91506119c982611962565b604082019050919050565b600060208201905081810360008301526119ed816119b1565b9050919050565b7f45524332303a20617070726f766520746f20746865207a65726f20616464726560008201527f7373000000000000000000000000000000000000000000000000000000000000602082015250565b6000611a50602283611239565b9150611a5b826119f4565b604082019050919050565b60006020820190508181036000830152611a7f81611a43565b9050919050565b7f45524332303a20696e73756666696369656e7420616c6c6f77616e6365000000600082015250565b6000611abc601d83611239565b9150611ac782611a86565b602082019050919050565b60006020820190508181036000830152611aeb81611aaf565b9050919050565b7f45524332303a207472616e736665722066726f6d20746865207a65726f20616460008201527f6472657373000000000000000000000000000000000000000000000000000000602082015250565b6000611b4e602583611239565b9150611b5982611af2565b604082019050919050565b60006020820190508181036000830152611b7d81611b41565b9050919050565b7f45524332303a207472616e7366657220746f20746865207a65726f206164647260008201527f6573730000000000000000000000000000000000000000000000000000000000602082015250565b6000611be0602383611239565b9150611beb82611b84565b604082019050919050565b60006020820190508181036000830152611c0f81611bd3565b9050919050565b7f45524332303a207472616e7366657220616d6f756e742065786365656473206260008201527f616c616e63650000000000000000000000000000000000000000000000000000602082015250565b6000611c72602683611239565b9150611c7d82611c16565b604082019050919050565b60006020820190508181036000830152611ca181611c65565b9050919050565b7f4f776e61626c653a2063616c6c6572206973206e6f7420746865206f776e6572600082015250565b6000611cde602083611239565b9150611ce982611ca8565b602082019050919050565b60006020820190508181036000830152611d0d81611cd1565b9050919050565b7f4f776e61626c653a206e6577206f776e657220697320746865207a65726f206160008201527f6464726573730000000000000000000000000000000000000000000000000000602082015250565b6000611d70602683611239565b9150611d7b82611d14565b604082019050919050565b60006020820190508181036000830152611d9f81611d63565b905091905056fea264697066735822122004941b00614bb4af63fa18fba800cdd61f1913ecb800e8351be3b4f81d285d2964736f6c63430008180033",
  "linkReferences": {},
  "deployedLinkReferences": {}
}