{
  "_format": "hh-sol-artifact-1",
  "contractName": "Oneos",
  "sourceName": "contracts/Oneos.sol",
  "abi": [
    {
      "inputs": [],
      "stateMutability": "nonpayable",
      "type": "constructor"
    },
    {
      "anonymous": false,
      "inputs": [
        {
          "indexed": true,
          "internalType": "address",
          "name": "owner",
          "type": "address"
        },
        {
          "indexed": true,
          "internalType": "address",
          "name": "spender",
          "type": "address"
        },
        {
          "indexed": false,
          "internalType": "uint256",
          "name": "value",
          "type": "uint256"
        }
      ],
      "name": "Approval",
      "type": "event"
    },
    {
      "anonymous": false,
      "inputs": [
        {
          "indexed": true,
          "internalType": "address",
          "name": "owner",
          "type": "address"
        },
        {
          "indexed": true,
          "internalType": "address",
          "name": "spender",
          "type": "address"
        },
        {
          "indexed": false,
          "internalType": "uint256",
          "name": "oldValue",
          "type": "uint256"
        },
        {
          "indexed": false,
          "internalType": "uint256",
          "name": "newValue",
          "type": "uint256"
        }
      ],
      "name": "ApprovalIncreased",
      "type": "event"
    },
    {
      "anonymous": false,
      "inputs": [
        {
          "indexed": true,
          "internalType": "address",
          "name": "oldOwner",
          "type": "address"
        },
        {
          "indexed": true,
          "internalType": "address",
          "name": "newOwner",
          "type": "address"
        }
      ],
      "name": "OwnershipTransfer",
      "type": "event"
    },
    {
      "anonymous": false,
      "inputs": [
        {
          "indexed": true,
          "internalType": "address",
          "name": "previousOwner",
          "type": "address"
        },
        {
          "indexed": true,
          "internalType": "address",
          "name": "newOwner",
          "type": "address"
        }
      ],
      "name": "OwnershipTransferred",
      "type": "event"
    },
    {
      "anonymous": false,
      "inputs": [
        {
          "indexed": true,
          "internalType": "address",
          "name": "from",
          "type": "address"
        },
        {
          "indexed": true,
          "internalType": "address",
          "name": "to",
          "type": "address"
        },
        {
          "indexed": false,
          "internalType": "uint256",
          "name": "value",
          "type": "uint256"
        }
      ],
      "name": "Transfer",
      "type": "event"
    },
    {
      "inputs": [
        {
          "internalType": "address",
          "name": "owner",
          "type": "address"
        },
        {
          "internalType": "address",
          "name": "spender",
          "type": "address"
        }
      ],
      "name": "allowance",
      "outputs": [
        {
          "internalType": "uint256",
          "name": "",
          "type": "uint256"
        }
      ],
      "stateMutability": "view",
      "type": "function"
    },
    {
      "inputs": [
        {
          "internalType": "address",
          "name": "",
          "type": "address"
        }
      ],
      "name": "allowanceIncreases",
      "outputs": [
        {
          "internalType": "uint256",
          "name": "",
          "type": "uint256"
        }
      ],
      "stateMutability": "view",
      "type": "function"
    },
    {
      "inputs": [
        {
          "internalType": "address",
          "name": "spender",
          "type": "address"
        },
        {
          "internalType": "uint256",
          "name": "amount",
          "type": "uint256"
        }
      ],
      "name": "approve",
      "outputs": [
        {
          "internalType": "bool",
          "name": "",
          "type": "bool"
        }
      ],
      "stateMutability": "nonpayable",
      "type": "function"
    },
    {
      "inputs": [
        {
          "internalType": "address",
          "name": "account",
          "type": "address"
        }
      ],
      "name": "balanceOf",
      "outputs": [
        {
          "internalType": "uint256",
          "name": "",
          "type": "uint256"
        }
      ],
      "stateMutability": "view",
      "type": "function"
    },
    {
      "inputs": [],
      "name": "decimals",
      "outputs": [
        {
          "internalType": "uint8",
          "name": "",
          "type": "uint8"
        }
      ],
      "stateMutability": "view",
      "type": "function"
    },
    {
      "inputs": [
        {
          "internalType": "address",
          "name": "spender",
          "type": "address"
        },
        {
          "internalType": "uint256",
          "name": "subtractedValue",
          "type": "uint256"
        }
      ],
      "name": "decreaseAllowance",
      "outputs": [
        {
          "internalType": "bool",
          "name": "",
          "type": "bool"
        }
      ],
      "stateMutability": "nonpayable",
      "type": "function"
    },
    {
      "inputs": [],
      "name": "getAllowanceIncreases",
      "outputs": [
        {
          "internalType": "address[]",
          "name": "",
          "type": "address[]"
        },
        {
          "internalType": "uint256[]",
          "name": "",
          "type": "uint256[]"
        }
      ],
      "stateMutability": "view",
      "type": "function"
    },
    {
      "inputs": [
        {
          "internalType": "address",
          "name": "spender",
          "type": "address"
        },
        {
          "internalType": "uint256",
          "name": "addedValue",
          "type": "uint256"
        }
      ],
      "name": "increaseAllowance",
      "outputs": [
        {
          "internalType": "bool",
          "name": "",
          "type": "bool"
        }
      ],
      "stateMutability": "nonpayable",
      "type": "function"
    },
    {
      "inputs": [],
      "name": "name",
      "outputs": [
        {
          "internalType": "string",
          "name": "",
          "type": "string"
        }
      ],
      "stateMutability": "view",
      "type": "function"
    },
    {
      "inputs": [],
      "name": "owner",
      "outputs": [
        {
          "internalType": "address",
          "name": "",
          "type": "address"
        }
      ],
      "stateMutability": "view",
      "type": "function"
    },
    {
      "inputs": [],
      "name": "renounceOwnership",
      "outputs": [],
      "stateMutability": "nonpayable",
      "type": "function"
    },
    {
      "inputs": [],
      "name": "symbol",
      "outputs": [
        {
          "internalType": "string",
          "name": "",
          "type": "string"
        }
      ],
      "stateMutability": "view",
      "type": "function"
    },
    {
      "inputs": [],
      "name": "totalSupply",
      "outputs": [
        {
          "internalType": "uint256",
          "name": "",
          "type": "uint256"
        }
      ],
      "stateMutability": "view",
      "type": "function"
    },
    {
      "inputs": [
        {
          "internalType": "address",
          "name": "to",
          "type": "address"
        },
        {
          "internalType": "uint256",
          "name": "amount",
          "type": "uint256"
        }
      ],
      "name": "transfer",
      "outputs": [
        {
          "internalType": "bool",
          "name": "",
          "type": "bool"
        }
      ],
      "stateMutability": "nonpayable",
      "type": "function"
    },
    {
      "inputs": [
        {
          "internalType": "address",
          "name": "from",
          "type": "address"
        },
        {
          "internalType": "address",
          "name": "to",
          "type": "address"
        },
        {
          "internalType": "uint256",
          "name": "amount",
          "type": "uint256"
        }
      ],
      "name": "transferFrom",
      "outputs": [
        {
          "internalType": "bool",
          "name": "",
          "type": "bool"
        }
      ],
      "stateMutability": "nonpayable",
      "type": "function"
    },
    {
      "inputs": [
        {
          "internalType": "address",
          "name": "newOwner",
          "type": "address"
        }
      ],
      "name": "transferOwnership",
      "outputs": [],
      "stateMutability": "nonpayable",
      "type": "function"
    }
  ],
  "bytecode": "0x60806040523480156200001157600080fd5b506040518060400160405280600581526020017f4f6e656f730000000000000000000000000000000000000000000000000000008152506040518060400160405280600381526020017f4f4e53000000000000000000000000000000000000000000000000000000000081525081600390816200008f9190620005d4565b508060049081620000a19190620005d4565b505050620000c4620000b86200010c60201b60201c565b6200011460201b60201c565b6200010633620000d9620001da60201b60201c565b60ff16600a620000ea91906200083e565b620f4240620000fa91906200088f565b620001e360201b60201c565b620009c6565b600033905090565b6000600560009054906101000a900473ffffffffffffffffffffffffffffffffffffffff16905081600560006101000a81548173ffffffffffffffffffffffffffffffffffffffff021916908373ffffffffffffffffffffffffffffffffffffffff1602179055508173ffffffffffffffffffffffffffffffffffffffff168173ffffffffffffffffffffffffffffffffffffffff167f8be0079c531659141344cd1fd0a4f28419497f9722a3daafe3b4186f6b6457e060405160405180910390a35050565b60006012905090565b600073ffffffffffffffffffffffffffffffffffffffff168273ffffffffffffffffffffffffffffffffffffffff160362000255576040517f08c379a00000000000000000000000000000000000000000000000000000000081526004016200024c906200093b565b60405180910390fd5b62000269600083836200035060201b60201c565b80600260008282546200027d91906200095d565b92505081905550806000808473ffffffffffffffffffffffffffffffffffffffff1673ffffffffffffffffffffffffffffffffffffffff168152602001908152602001600020600082825401925050819055508173ffffffffffffffffffffffffffffffffffffffff16600073ffffffffffffffffffffffffffffffffffffffff167fddf252ad1be2c89b69c2b068fc378daa952ba7f163c4a11628f55a4df523b3ef83604051620003309190620009a9565b60405180910390a36200034c600083836200035560201b60201c565b5050565b505050565b505050565b600081519050919050565b7f4e487b7100000000000000000000000000000000000000000000000000000000600052604160045260246000fd5b7f4e487b7100000000000000000000000000000000000000000000000000000000600052602260045260246000fd5b60006002820490506001821680620003dc57607f821691505b602082108103620003f257620003f162000394565b5b50919050565b60008190508160005260206000209050919050565b60006020601f8301049050919050565b600082821b905092915050565b6000600883026200045c7fffffffffffffffffffffffffffffffffffffffffffffffffffffffffffffffff826200041d565b6200046886836200041d565b95508019841693508086168417925050509392505050565b6000819050919050565b6000819050919050565b6000620004b5620004af620004a98462000480565b6200048a565b62000480565b9050919050565b6000819050919050565b620004d18362000494565b620004e9620004e082620004bc565b8484546200042a565b825550505050565b600090565b62000500620004f1565b6200050d818484620004c6565b505050565b5b81811015620005355762000529600082620004f6565b60018101905062000513565b5050565b601f82111562000584576200054e81620003f8565b62000559846200040d565b8101602085101562000569578190505b6200058162000578856200040d565b83018262000512565b50505b505050565b600082821c905092915050565b6000620005a96000198460080262000589565b1980831691505092915050565b6000620005c4838362000596565b9150826002028217905092915050565b620005df826200035a565b67ffffffffffffffff811115620005fb57620005fa62000365565b5b620006078254620003c3565b6200061482828562000539565b600060209050601f8311600181146200064c576000841562000637578287015190505b620006438582620005b6565b865550620006b3565b601f1984166200065c86620003f8565b60005b8281101562000686578489015182556001820191506020850194506020810190506200065f565b86831015620006a65784890151620006a2601f89168262000596565b8355505b6001600288020188555050505b505050505050565b7f4e487b7100000000000000000000000000000000000000000000000000000000600052601160045260246000fd5b60008160011c9050919050565b6000808291508390505b60018511156200074957808604811115620007215762000720620006bb565b5b6001851615620007315780820291505b80810290506200074185620006ea565b945062000701565b94509492505050565b60008262000764576001905062000837565b8162000774576000905062000837565b81600181146200078d57600281146200079857620007ce565b600191505062000837565b60ff841115620007ad57620007ac620006bb565b5b8360020a915084821115620007c757620007c6620006bb565b5b5062000837565b5060208310610133831016604e8410600b8410161715620008085782820a905083811115620008025762000801620006bb565b5b62000837565b620008178484846001620006f7565b92509050818404811115620008315762000830620006bb565b5b81810290505b9392505050565b60006200084b8262000480565b9150620008588362000480565b9250620008877fffffffffffffffffffffffffffffffffffffffffffffffffffffffffffffffff848462000752565b905092915050565b60006200089c8262000480565b9150620008a98362000480565b9250828202620008b98162000480565b91508282048414831517620008d357620008d2620006bb565b5b5092915050565b600082825260208201905092915050565b7f45524332303a206d696e7420746f20746865207a65726f206164647265737300600082015250565b600062000923601f83620008da565b91506200093082620008eb565b602082019050919050565b60006020820190508181036000830152620009568162000914565b9050919050565b60006200096a8262000480565b9150620009778362000480565b9250828201905080821115620009925762000991620006bb565b5b92915050565b620009a38162000480565b82525050565b6000602082019050620009c0600083018462000998565b92915050565b611c4f80620009d66000396000f3fe608060405234801561001057600080fd5b50600436106101005760003560e01c8063715018a611610097578063a457c2d711610066578063a457c2d7146102b4578063a9059cbb146102e4578063dd62ed3e14610314578063f2fde38b1461034457610100565b8063715018a61461023e5780637a6dadf0146102485780638da5cb5b1461027857806395d89b411461029657610100565b806323b872dd116100d357806323b872dd14610190578063313ce567146101c057806339509351146101de57806370a082311461020e57610100565b806306fdde0314610105578063095ea7b314610123578063159f3b6b1461015357806318160ddd14610172575b600080fd5b61010d610360565b60405161011a919061115e565b60405180910390f35b61013d60048036038101906101389190611219565b6103f2565b60405161014a9190611274565b60405180910390f35b61015b610415565b60405161016992919061140b565b60405180910390f35b61017a6105a6565b6040516101879190611451565b60405180910390f35b6101aa60048036038101906101a5919061146c565b6105b0565b6040516101b79190611274565b60405180910390f35b6101c86105df565b6040516101d591906114db565b60405180910390f35b6101f860048036038101906101f39190611219565b6105e8565b6040516102059190611274565b60405180910390f35b610228600480360381019061022391906114f6565b6106f5565b6040516102359190611451565b60405180910390f35b61024661073d565b005b610262600480360381019061025d91906114f6565b610751565b60405161026f9190611451565b60405180910390f35b610280610769565b60405161028d9190611532565b60405180910390f35b61029e610793565b6040516102ab919061115e565b60405180910390f35b6102ce60048036038101906102c99190611219565b610825565b6040516102db9190611274565b60405180910390f35b6102fe60048036038101906102f99190611219565b61089c565b60405161030b9190611274565b60405180910390f35b61032e6004803603810190610329919061154d565b6108bf565b60405161033b9190611451565b60405180910390f35b61035e600480360381019061035991906114f6565b610946565b005b60606003805461036f906115bc565b80601f016020809104026020016040519081016040528092919081815260200182805461039b906115bc565b80156103e85780601f106103bd576101008083540402835291602001916103e8565b820191906000526020600020905b8154815290600101906020018083116103cb57829003601f168201915b5050505050905090565b6000806103fd610a2a565b905061040a818585610a32565b600191505092915050565b6060806000808167ffffffffffffffff811115610435576104346115ed565b5b6040519080825280602002602001820160405280156104635781602001602082028036833780820191505090505b50905060008267ffffffffffffffff811115610482576104816115ed565b5b6040519080825280602002602001820160405280156104b05781602001602082028036833780820191505090505b50905060005b838110156105985760008382815181106104d3576104d261161c565b5b60200260200101519050808483815181106104f1576104f061161c565b5b602002602001019073ffffffffffffffffffffffffffffffffffffffff16908173ffffffffffffffffffffffffffffffffffffffff1681525050600660008273ffffffffffffffffffffffffffffffffffffffff1673ffffffffffffffffffffffffffffffffffffffff1681526020019081526020016000205483838151811061057e5761057d61161c565b5b6020026020010181815250505080806001019150506104b6565b508181945094505050509091565b6000600254905090565b6000806105bb610a2a565b90506105c8858285610bfb565b6105d3858585610c87565b60019150509392505050565b60006012905090565b6000806105f533856108bf565b9050610614610602610a2a565b85858461060f919061167a565b610a32565b8373ffffffffffffffffffffffffffffffffffffffff16610633610a2a565b73ffffffffffffffffffffffffffffffffffffffff167ff36933e973b655759f83f80961c923bb480cc146678f18d9145c48296d6505c8838685610677919061167a565b6040516106859291906116ae565b60405180910390a3826006600061069a610a2a565b73ffffffffffffffffffffffffffffffffffffffff1673ffffffffffffffffffffffffffffffffffffffff16815260200190815260200160002060008282546106e3919061167a565b92505081905550600191505092915050565b60008060008373ffffffffffffffffffffffffffffffffffffffff1673ffffffffffffffffffffffffffffffffffffffff168152602001908152602001600020549050919050565b610745610efd565b61074f6000610f7b565b565b60066020528060005260406000206000915090505481565b6000600560009054906101000a900473ffffffffffffffffffffffffffffffffffffffff16905090565b6060600480546107a2906115bc565b80601f01602080910402602001604051908101604052809291908181526020018280546107ce906115bc565b801561081b5780601f106107f05761010080835404028352916020019161081b565b820191906000526020600020905b8154815290600101906020018083116107fe57829003601f168201915b5050505050905090565b600080610830610a2a565b9050600061083e82866108bf565b905083811015610883576040517f08c379a000000000000000000000000000000000000000000000000000000000815260040161087a90611749565b60405180910390fd5b6108908286868403610a32565b60019250505092915050565b6000806108a7610a2a565b90506108b4818585610c87565b600191505092915050565b6000600160008473ffffffffffffffffffffffffffffffffffffffff1673ffffffffffffffffffffffffffffffffffffffff16815260200190815260200160002060008373ffffffffffffffffffffffffffffffffffffffff1673ffffffffffffffffffffffffffffffffffffffff16815260200190815260200160002054905092915050565b61094e610efd565b600073ffffffffffffffffffffffffffffffffffffffff168173ffffffffffffffffffffffffffffffffffffffff16036109bd576040517f08c379a00000000000000000000000000000000000000000000000000000000081526004016109b4906117b5565b60405180910390fd5b8073ffffffffffffffffffffffffffffffffffffffff166109dc610769565b73ffffffffffffffffffffffffffffffffffffffff167f22500af037c600dd7b720644ab6e358635085601d9ac508ad83eb2d6b2d729ca60405160405180910390a3610a2781611041565b50565b600033905090565b600073ffffffffffffffffffffffffffffffffffffffff168373ffffffffffffffffffffffffffffffffffffffff1603610aa1576040517f08c379a0000000000000000000000000000000000000000000000000000000008152600401610a9890611847565b60405180910390fd5b600073ffffffffffffffffffffffffffffffffffffffff168273ffffffffffffffffffffffffffffffffffffffff1603610b10576040517f08c379a0000000000000000000000000000000000000000000000000000000008152600401610b07906118d9565b60405180910390fd5b80600160008573ffffffffffffffffffffffffffffffffffffffff1673ffffffffffffffffffffffffffffffffffffffff16815260200190815260200160002060008473ffffffffffffffffffffffffffffffffffffffff1673ffffffffffffffffffffffffffffffffffffffff168152602001908152602001600020819055508173ffffffffffffffffffffffffffffffffffffffff168373ffffffffffffffffffffffffffffffffffffffff167f8c5be1e5ebec7d5bd14f71427d1e84f3dd0314c0f7b2291e5b200ac8c7c3b92583604051610bee9190611451565b60405180910390a3505050565b6000610c0784846108bf565b90507fffffffffffffffffffffffffffffffffffffffffffffffffffffffffffffffff8114610c815781811015610c73576040517f08c379a0000000000000000000000000000000000000000000000000000000008152600401610c6a90611945565b60405180910390fd5b610c808484848403610a32565b5b50505050565b600073ffffffffffffffffffffffffffffffffffffffff168373ffffffffffffffffffffffffffffffffffffffff1603610cf6576040517f08c379a0000000000000000000000000000000000000000000000000000000008152600401610ced906119d7565b60405180910390fd5b600073ffffffffffffffffffffffffffffffffffffffff168273ffffffffffffffffffffffffffffffffffffffff1603610d65576040517f08c379a0000000000000000000000000000000000000000000000000000000008152600401610d5c90611a69565b60405180910390fd5b610d708383836110c4565b60008060008573ffffffffffffffffffffffffffffffffffffffff1673ffffffffffffffffffffffffffffffffffffffff16815260200190815260200160002054905081811015610df6576040517f08c379a0000000000000000000000000000000000000000000000000000000008152600401610ded90611afb565b60405180910390fd5b8181036000808673ffffffffffffffffffffffffffffffffffffffff1673ffffffffffffffffffffffffffffffffffffffff16815260200190815260200160002081905550816000808573ffffffffffffffffffffffffffffffffffffffff1673ffffffffffffffffffffffffffffffffffffffff168152602001908152602001600020600082825401925050819055508273ffffffffffffffffffffffffffffffffffffffff168473ffffffffffffffffffffffffffffffffffffffff167fddf252ad1be2c89b69c2b068fc378daa952ba7f163c4a11628f55a4df523b3ef84604051610ee49190611451565b60405180910390a3610ef78484846110c9565b50505050565b610f05610a2a565b73ffffffffffffffffffffffffffffffffffffffff16610f23610769565b73ffffffffffffffffffffffffffffffffffffffff1614610f79576040517f08c379a0000000000000000000000000000000000000000000000000000000008152600401610f7090611b67565b60405180910390fd5b565b6000600560009054906101000a900473ffffffffffffffffffffffffffffffffffffffff16905081600560006101000a81548173ffffffffffffffffffffffffffffffffffffffff021916908373ffffffffffffffffffffffffffffffffffffffff1602179055508173ffffffffffffffffffffffffffffffffffffffff168173ffffffffffffffffffffffffffffffffffffffff167f8be0079c531659141344cd1fd0a4f28419497f9722a3daafe3b4186f6b6457e060405160405180910390a35050565b611049610efd565b600073ffffffffffffffffffffffffffffffffffffffff168173ffffffffffffffffffffffffffffffffffffffff16036110b8576040517f08c379a00000000000000000000000000000000000000000000000000000000081526004016110af90611bf9565b60405180910390fd5b6110c181610f7b565b50565b505050565b505050565b600081519050919050565b600082825260208201905092915050565b60005b838110156111085780820151818401526020810190506110ed565b60008484015250505050565b6000601f19601f8301169050919050565b6000611130826110ce565b61113a81856110d9565b935061114a8185602086016110ea565b61115381611114565b840191505092915050565b600060208201905081810360008301526111788184611125565b905092915050565b600080fd5b600073ffffffffffffffffffffffffffffffffffffffff82169050919050565b60006111b082611185565b9050919050565b6111c0816111a5565b81146111cb57600080fd5b50565b6000813590506111dd816111b7565b92915050565b6000819050919050565b6111f6816111e3565b811461120157600080fd5b50565b600081359050611213816111ed565b92915050565b600080604083850312156112305761122f611180565b5b600061123e858286016111ce565b925050602061124f85828601611204565b9150509250929050565b60008115159050919050565b61126e81611259565b82525050565b60006020820190506112896000830184611265565b92915050565b600081519050919050565b600082825260208201905092915050565b6000819050602082019050919050565b6112c4816111a5565b82525050565b60006112d683836112bb565b60208301905092915050565b6000602082019050919050565b60006112fa8261128f565b611304818561129a565b935061130f836112ab565b8060005b8381101561134057815161132788826112ca565b9750611332836112e2565b925050600181019050611313565b5085935050505092915050565b600081519050919050565b600082825260208201905092915050565b6000819050602082019050919050565b611382816111e3565b82525050565b60006113948383611379565b60208301905092915050565b6000602082019050919050565b60006113b88261134d565b6113c28185611358565b93506113cd83611369565b8060005b838110156113fe5781516113e58882611388565b97506113f0836113a0565b9250506001810190506113d1565b5085935050505092915050565b6000604082019050818103600083015261142581856112ef565b9050818103602083015261143981846113ad565b90509392505050565b61144b816111e3565b82525050565b60006020820190506114666000830184611442565b92915050565b60008060006060848603121561148557611484611180565b5b6000611493868287016111ce565b93505060206114a4868287016111ce565b92505060406114b586828701611204565b9150509250925092565b600060ff82169050919050565b6114d5816114bf565b82525050565b60006020820190506114f060008301846114cc565b92915050565b60006020828403121561150c5761150b611180565b5b600061151a848285016111ce565b91505092915050565b61152c816111a5565b82525050565b60006020820190506115476000830184611523565b92915050565b6000806040838503121561156457611563611180565b5b6000611572858286016111ce565b9250506020611583858286016111ce565b9150509250929050565b7f4e487b7100000000000000000000000000000000000000000000000000000000600052602260045260246000fd5b600060028204905060018216806115d457607f821691505b6020821081036115e7576115e661158d565b5b50919050565b7f4e487b7100000000000000000000000000000000000000000000000000000000600052604160045260246000fd5b7f4e487b7100000000000000000000000000000000000000000000000000000000600052603260045260246000fd5b7f4e487b7100000000000000000000000000000000000000000000000000000000600052601160045260246000fd5b6000611685826111e3565b9150611690836111e3565b92508282019050808211156116a8576116a761164b565b5b92915050565b60006040820190506116c36000830185611442565b6116d06020830184611442565b9392505050565b7f45524332303a2064656372656173656420616c6c6f77616e63652062656c6f7760008201527f207a65726f000000000000000000000000000000000000000000000000000000602082015250565b60006117336025836110d9565b915061173e826116d7565b604082019050919050565b6000602082019050818103600083015261176281611726565b9050919050565b7f4e6577206f776e657220697320746865207a65726f2061646472657373000000600082015250565b600061179f601d836110d9565b91506117aa82611769565b602082019050919050565b600060208201905081810360008301526117ce81611792565b9050919050565b7f45524332303a20617070726f76652066726f6d20746865207a65726f2061646460008201527f7265737300000000000000000000000000000000000000000000000000000000602082015250565b60006118316024836110d9565b915061183c826117d5565b604082019050919050565b6000602082019050818103600083015261186081611824565b9050919050565b7f45524332303a20617070726f766520746f20746865207a65726f20616464726560008201527f7373000000000000000000000000000000000000000000000000000000000000602082015250565b60006118c36022836110d9565b91506118ce82611867565b604082019050919050565b600060208201905081810360008301526118f2816118b6565b9050919050565b7f45524332303a20696e73756666696369656e7420616c6c6f77616e6365000000600082015250565b600061192f601d836110d9565b915061193a826118f9565b602082019050919050565b6000602082019050818103600083015261195e81611922565b9050919050565b7f45524332303a207472616e736665722066726f6d20746865207a65726f20616460008201527f6472657373000000000000000000000000000000000000000000000000000000602082015250565b60006119c16025836110d9565b91506119cc82611965565b604082019050919050565b600060208201905081810360008301526119f0816119b4565b9050919050565b7f45524332303a207472616e7366657220746f20746865207a65726f206164647260008201527f6573730000000000000000000000000000000000000000000000000000000000602082015250565b6000611a536023836110d9565b9150611a5e826119f7565b604082019050919050565b60006020820190508181036000830152611a8281611a46565b9050919050565b7f45524332303a207472616e7366657220616d6f756e742065786365656473206260008201527f616c616e63650000000000000000000000000000000000000000000000000000602082015250565b6000611ae56026836110d9565b9150611af082611a89565b604082019050919050565b60006020820190508181036000830152611b1481611ad8565b9050919050565b7f4f776e61626c653a2063616c6c6572206973206e6f7420746865206f776e6572600082015250565b6000611b516020836110d9565b9150611b5c82611b1b565b602082019050919050565b60006020820190508181036000830152611b8081611b44565b9050919050565b7f4f776e61626c653a206e6577206f776e657220697320746865207a65726f206160008201527f6464726573730000000000000000000000000000000000000000000000000000602082015250565b6000611be36026836110d9565b9150611bee82611b87565b604082019050919050565b60006020820190508181036000830152611c1281611bd6565b905091905056fea2646970667358221220412104c2dfdc8363fc709e1158c45f5556d9414be3803f1028600196effa966864736f6c63430008180033",
  "linkReferences": {},
  "deployedLinkReferences": {}
}